{
  "contractName": "ArtAuction",
  "abi": [
    {
      "inputs": [],
      "stateMutability": "nonpayable",
      "type": "constructor"
    },
    {
      "anonymous": false,
      "inputs": [
        {
          "indexed": true,
          "internalType": "address",
          "name": "owner",
          "type": "address"
        },
        {
          "indexed": true,
          "internalType": "address",
          "name": "approved",
          "type": "address"
        },
        {
          "indexed": true,
          "internalType": "uint256",
          "name": "tokenId",
          "type": "uint256"
        }
      ],
      "name": "Approval",
      "type": "event"
    },
    {
      "anonymous": false,
      "inputs": [
        {
          "indexed": true,
          "internalType": "address",
          "name": "owner",
          "type": "address"
        },
        {
          "indexed": true,
          "internalType": "address",
          "name": "operator",
          "type": "address"
        },
        {
          "indexed": false,
          "internalType": "bool",
          "name": "approved",
          "type": "bool"
        }
      ],
      "name": "ApprovalForAll",
      "type": "event"
    },
    {
      "anonymous": false,
      "inputs": [
        {
          "indexed": false,
          "internalType": "address",
          "name": "bidder",
          "type": "address"
        },
        {
          "indexed": false,
          "internalType": "uint256",
          "name": "bid",
          "type": "uint256"
        },
        {
          "indexed": false,
          "internalType": "address",
          "name": "highestBidder",
          "type": "address"
        },
        {
          "indexed": false,
          "internalType": "uint256",
          "name": "highestBid",
          "type": "uint256"
        },
        {
          "indexed": false,
          "internalType": "uint256",
          "name": "highestBindingBid",
          "type": "uint256"
        }
      ],
      "name": "LogBid",
      "type": "event"
    },
    {
      "anonymous": false,
      "inputs": [],
      "name": "LogCanceled",
      "type": "event"
    },
    {
      "anonymous": false,
      "inputs": [
        {
          "indexed": false,
          "internalType": "address",
          "name": "withdrawer",
          "type": "address"
        },
        {
          "indexed": false,
          "internalType": "address",
          "name": "withdrawalAccount",
          "type": "address"
        },
        {
          "indexed": false,
          "internalType": "uint256",
          "name": "amount",
          "type": "uint256"
        }
      ],
      "name": "LogWithdrawal",
      "type": "event"
    },
    {
      "anonymous": false,
      "inputs": [
        {
          "indexed": true,
          "internalType": "address",
          "name": "from",
          "type": "address"
        },
        {
          "indexed": true,
          "internalType": "address",
          "name": "to",
          "type": "address"
        },
        {
          "indexed": true,
          "internalType": "uint256",
          "name": "tokenId",
          "type": "uint256"
        }
      ],
      "name": "Transfer",
      "type": "event"
    },
    {
      "inputs": [],
      "name": "_artItemIds",
      "outputs": [
        {
          "internalType": "uint256",
          "name": "",
          "type": "uint256"
        }
      ],
      "stateMutability": "view",
      "type": "function"
    },
    {
      "inputs": [],
      "name": "_tokenIds",
      "outputs": [
        {
          "internalType": "uint256",
          "name": "",
          "type": "uint256"
        }
      ],
      "stateMutability": "view",
      "type": "function"
    },
    {
      "inputs": [
        {
          "internalType": "address",
          "name": "to",
          "type": "address"
        },
        {
          "internalType": "uint256",
          "name": "tokenId",
          "type": "uint256"
        }
      ],
      "name": "approve",
      "outputs": [],
      "stateMutability": "nonpayable",
      "type": "function"
    },
    {
      "inputs": [
        {
          "internalType": "address",
          "name": "owner",
          "type": "address"
        }
      ],
      "name": "balanceOf",
      "outputs": [
        {
          "internalType": "uint256",
          "name": "",
          "type": "uint256"
        }
      ],
      "stateMutability": "view",
      "type": "function"
    },
    {
      "inputs": [],
      "name": "baseURI",
      "outputs": [
        {
          "internalType": "string",
          "name": "",
          "type": "string"
        }
      ],
      "stateMutability": "view",
      "type": "function"
    },
    {
      "inputs": [
        {
          "internalType": "uint256",
          "name": "",
          "type": "uint256"
        }
      ],
      "name": "bid",
      "outputs": [
        {
          "internalType": "uint256",
          "name": "highestBindingBid",
          "type": "uint256"
        },
        {
          "internalType": "address payable",
          "name": "highestBidder",
          "type": "address"
        }
      ],
      "stateMutability": "view",
      "type": "function"
    },
    {
      "inputs": [],
      "name": "canceled",
      "outputs": [
        {
          "internalType": "bool",
          "name": "",
          "type": "bool"
        }
      ],
      "stateMutability": "view",
      "type": "function"
    },
    {
      "inputs": [
        {
          "internalType": "uint256",
          "name": "",
          "type": "uint256"
        },
        {
          "internalType": "address",
          "name": "",
          "type": "address"
        }
      ],
      "name": "fundsByBidder",
      "outputs": [
        {
          "internalType": "uint256",
          "name": "",
          "type": "uint256"
        }
      ],
      "stateMutability": "view",
      "type": "function"
    },
    {
      "inputs": [
        {
          "internalType": "uint256",
          "name": "tokenId",
          "type": "uint256"
        }
      ],
      "name": "getApproved",
      "outputs": [
        {
          "internalType": "address",
          "name": "",
          "type": "address"
        }
      ],
      "stateMutability": "view",
      "type": "function"
    },
    {
      "inputs": [
        {
          "internalType": "address",
          "name": "owner",
          "type": "address"
        },
        {
          "internalType": "address",
          "name": "operator",
          "type": "address"
        }
      ],
      "name": "isApprovedForAll",
      "outputs": [
        {
          "internalType": "bool",
          "name": "",
          "type": "bool"
        }
      ],
      "stateMutability": "view",
      "type": "function"
    },
    {
      "inputs": [],
      "name": "name",
      "outputs": [
        {
          "internalType": "string",
          "name": "",
          "type": "string"
        }
      ],
      "stateMutability": "view",
      "type": "function"
    },
    {
      "inputs": [],
      "name": "owner",
      "outputs": [
        {
          "internalType": "address",
          "name": "",
          "type": "address"
        }
      ],
      "stateMutability": "view",
      "type": "function"
    },
    {
      "inputs": [
        {
          "internalType": "uint256",
          "name": "tokenId",
          "type": "uint256"
        }
      ],
      "name": "ownerOf",
      "outputs": [
        {
          "internalType": "address",
          "name": "",
          "type": "address"
        }
      ],
      "stateMutability": "view",
      "type": "function"
    },
    {
      "inputs": [
        {
          "internalType": "address",
          "name": "from",
          "type": "address"
        },
        {
          "internalType": "address",
          "name": "to",
          "type": "address"
        },
        {
          "internalType": "uint256",
          "name": "tokenId",
          "type": "uint256"
        }
      ],
      "name": "safeTransferFrom",
      "outputs": [],
      "stateMutability": "nonpayable",
      "type": "function"
    },
    {
      "inputs": [
        {
          "internalType": "address",
          "name": "from",
          "type": "address"
        },
        {
          "internalType": "address",
          "name": "to",
          "type": "address"
        },
        {
          "internalType": "uint256",
          "name": "tokenId",
          "type": "uint256"
        },
        {
          "internalType": "bytes",
          "name": "_data",
          "type": "bytes"
        }
      ],
      "name": "safeTransferFrom",
      "outputs": [],
      "stateMutability": "nonpayable",
      "type": "function"
    },
    {
      "inputs": [
        {
          "internalType": "address",
          "name": "operator",
          "type": "address"
        },
        {
          "internalType": "bool",
          "name": "approved",
          "type": "bool"
        }
      ],
      "name": "setApprovalForAll",
      "outputs": [],
      "stateMutability": "nonpayable",
      "type": "function"
    },
    {
      "inputs": [
        {
          "internalType": "bytes4",
          "name": "interfaceId",
          "type": "bytes4"
        }
      ],
      "name": "supportsInterface",
      "outputs": [
        {
          "internalType": "bool",
          "name": "",
          "type": "bool"
        }
      ],
      "stateMutability": "view",
      "type": "function"
    },
    {
      "inputs": [],
      "name": "symbol",
      "outputs": [
        {
          "internalType": "string",
          "name": "",
          "type": "string"
        }
      ],
      "stateMutability": "view",
      "type": "function"
    },
    {
      "inputs": [
        {
          "internalType": "uint256",
          "name": "index",
          "type": "uint256"
        }
      ],
      "name": "tokenByIndex",
      "outputs": [
        {
          "internalType": "uint256",
          "name": "",
          "type": "uint256"
        }
      ],
      "stateMutability": "view",
      "type": "function"
    },
    {
      "inputs": [
        {
          "internalType": "address",
          "name": "owner",
          "type": "address"
        },
        {
          "internalType": "uint256",
          "name": "index",
          "type": "uint256"
        }
      ],
      "name": "tokenOfOwnerByIndex",
      "outputs": [
        {
          "internalType": "uint256",
          "name": "",
          "type": "uint256"
        }
      ],
      "stateMutability": "view",
      "type": "function"
    },
    {
      "inputs": [
        {
          "internalType": "uint256",
          "name": "tokenId",
          "type": "uint256"
        }
      ],
      "name": "tokenURI",
      "outputs": [
        {
          "internalType": "string",
          "name": "",
          "type": "string"
        }
      ],
      "stateMutability": "view",
      "type": "function"
    },
    {
      "inputs": [],
      "name": "totalSupply",
      "outputs": [
        {
          "internalType": "uint256",
          "name": "",
          "type": "uint256"
        }
      ],
      "stateMutability": "view",
      "type": "function"
    },
    {
      "inputs": [
        {
          "internalType": "address",
          "name": "from",
          "type": "address"
        },
        {
          "internalType": "address",
          "name": "to",
          "type": "address"
        },
        {
          "internalType": "uint256",
          "name": "tokenId",
          "type": "uint256"
        }
      ],
      "name": "transferFrom",
      "outputs": [],
      "stateMutability": "nonpayable",
      "type": "function"
    },
    {
      "inputs": [
        {
          "internalType": "uint256",
          "name": "price",
          "type": "uint256"
        },
        {
          "internalType": "string",
          "name": "tokenURI",
          "type": "string"
        },
        {
          "internalType": "uint256",
          "name": "_bidincrement",
          "type": "uint256"
        }
      ],
      "name": "addArtItem",
      "outputs": [],
      "stateMutability": "nonpayable",
      "type": "function"
    },
    {
      "inputs": [
        {
          "internalType": "uint256",
          "name": "id",
          "type": "uint256"
        }
      ],
      "name": "getArtItem",
      "outputs": [
        {
          "internalType": "uint256",
          "name": "",
          "type": "uint256"
        },
        {
          "internalType": "uint256",
          "name": "",
          "type": "uint256"
        },
        {
          "internalType": "string",
          "name": "",
          "type": "string"
        },
        {
          "internalType": "uint256",
          "name": "",
          "type": "uint256"
        },
        {
          "internalType": "address",
          "name": "",
          "type": "address"
        }
      ],
      "stateMutability": "view",
      "type": "function"
    },
    {
      "inputs": [
        {
          "internalType": "uint256",
          "name": "id",
          "type": "uint256"
        }
      ],
      "name": "getArtItem2",
      "outputs": [
        {
          "internalType": "string",
          "name": "",
          "type": "string"
        },
        {
          "internalType": "uint256",
          "name": "",
          "type": "uint256"
        }
      ],
      "stateMutability": "view",
      "type": "function"
    },
    {
      "inputs": [],
      "name": "getArtItemIds",
      "outputs": [
        {
          "internalType": "uint256",
          "name": "",
          "type": "uint256"
        }
      ],
      "stateMutability": "nonpayable",
      "type": "function"
    },
    {
      "inputs": [
        {
          "internalType": "uint256",
          "name": "id",
          "type": "uint256"
        }
      ],
      "name": "cancelAuction",
      "outputs": [
        {
          "internalType": "bool",
          "name": "success",
          "type": "bool"
        }
      ],
      "stateMutability": "payable",
      "type": "function"
    },
    {
      "inputs": [
        {
          "internalType": "uint256",
          "name": "id",
          "type": "uint256"
        }
      ],
      "name": "placeBid",
      "outputs": [
        {
          "internalType": "bool",
          "name": "success",
          "type": "bool"
        }
      ],
      "stateMutability": "payable",
      "type": "function"
    },
    {
      "inputs": [
        {
          "internalType": "uint256",
          "name": "id",
          "type": "uint256"
        }
      ],
      "name": "withdraw",
      "outputs": [
        {
          "internalType": "bool",
          "name": "success",
          "type": "bool"
        }
      ],
      "stateMutability": "payable",
      "type": "function"
    }
  ],
  "bytecode": "0x60806040526000601160006101000a81548160ff0219169083151502179055506000601160016101000a81548160ff0219169083151502179055503480156200004757600080fd5b506040518060400160405280600481526020017f44415254000000000000000000000000000000000000000000000000000000008152506040518060400160405280600381526020017f4152540000000000000000000000000000000000000000000000000000000000815250620000cc6301ffc9a760e01b6200018f60201b60201c565b8160069080519060200190620000e492919062000298565b508060079080519060200190620000fd92919062000298565b50620001166380ac58cd60e01b6200018f60201b60201c565b6200012e635b5e139f60e01b6200018f60201b60201c565b6200014663780e9d6360e01b6200018f60201b60201c565b505033600b60006101000a81548173ffffffffffffffffffffffffffffffffffffffff021916908373ffffffffffffffffffffffffffffffffffffffff16021790555062000347565b63ffffffff60e01b817bffffffffffffffffffffffffffffffffffffffffffffffffffffffff191614156200022c576040517f08c379a000000000000000000000000000000000000000000000000000000000815260040180806020018281038252601c8152602001807f4552433136353a20696e76616c696420696e746572666163652069640000000081525060200191505060405180910390fd5b6001600080837bffffffffffffffffffffffffffffffffffffffffffffffffffffffff19167bffffffffffffffffffffffffffffffffffffffffffffffffffffffff1916815260200190815260200160002060006101000a81548160ff02191690831515021790555050565b828054600181600116156101000203166002900490600052602060002090601f016020900481019282601f10620002db57805160ff19168380011785556200030c565b828001600101855582156200030c579182015b828111156200030b578251825591602001919060010190620002ee565b5b5090506200031b91906200031f565b5090565b6200034491905b808211156200034057600081600090555060010162000326565b5090565b90565b614bca80620003576000396000f3fe6080604052600436106101cd5760003560e01c80634f6ccce7116100f757806396b5a75511610095578063b88d4fde11610064578063b88d4fde14610c88578063c87b56dd14610d9a578063cbe1541a14610e4e578063e985e9c514610f09576101cd565b806396b5a75514610b745780639979ef4514610bba578063a22cb46514610c00578063aa46a40014610c5d576101cd565b80636c0360eb116100d15780636c0360eb1461099857806370a0823114610a285780638da5cb5b14610a8d57806395d89b4114610ae4576101cd565b80634f6ccce7146107f25780636352211e146108415780636408f9c0146108bc576101cd565b806321f004eb1161016f5780632f745c591161013e5780632f745c59146106575780633f9942ff146106c657806342842e0e146106f5578063454a2ab314610770576101cd565b806321f004eb1461042b57806323b872dd1461052757806326fe3065146105a25780632e1a7d4d14610611576101cd565b8063095ea7b3116101ab578063095ea7b31461034f57806314797de7146103aa57806318160ddd146103d55780631a8670d514610400576101cd565b806301ffc9a7146101d257806306fdde0314610244578063081812fc146102d4575b600080fd5b3480156101de57600080fd5b5061022a600480360360208110156101f557600080fd5b8101908080357bffffffffffffffffffffffffffffffffffffffffffffffffffffffff19169060200190929190505050610f92565b604051808215151515815260200191505060405180910390f35b34801561025057600080fd5b50610259610ff9565b6040518080602001828103825283818151815260200191508051906020019080838360005b8381101561029957808201518184015260208101905061027e565b50505050905090810190601f1680156102c65780820380516001836020036101000a031916815260200191505b509250505060405180910390f35b3480156102e057600080fd5b5061030d600480360360208110156102f757600080fd5b810190808035906020019092919050505061109b565b604051808273ffffffffffffffffffffffffffffffffffffffff1673ffffffffffffffffffffffffffffffffffffffff16815260200191505060405180910390f35b34801561035b57600080fd5b506103a86004803603604081101561037257600080fd5b81019080803573ffffffffffffffffffffffffffffffffffffffff16906020019092919080359060200190929190505050611136565b005b3480156103b657600080fd5b506103bf61127a565b6040518082815260200191505060405180910390f35b3480156103e157600080fd5b506103ea611280565b6040518082815260200191505060405180910390f35b34801561040c57600080fd5b50610415611291565b6040518082815260200191505060405180910390f35b34801561043757600080fd5b506104646004803603602081101561044e57600080fd5b810190808035906020019092919050505061129b565b60405180868152602001858152602001806020018481526020018373ffffffffffffffffffffffffffffffffffffffff1673ffffffffffffffffffffffffffffffffffffffff168152602001828103825285818151815260200191508051906020019080838360005b838110156104e85780820151818401526020810190506104cd565b50505050905090810190601f1680156105155780820380516001836020036101000a031916815260200191505b50965050505050505060405180910390f35b34801561053357600080fd5b506105a06004803603606081101561054a57600080fd5b81019080803573ffffffffffffffffffffffffffffffffffffffff169060200190929190803573ffffffffffffffffffffffffffffffffffffffff16906020019092919080359060200190929190505050611542565b005b3480156105ae57600080fd5b506105fb600480360360408110156105c557600080fd5b8101908080359060200190929190803573ffffffffffffffffffffffffffffffffffffffff1690602001909291905050506115b8565b6040518082815260200191505060405180910390f35b61063d6004803603602081101561062757600080fd5b81019080803590602001909291905050506115dd565b604051808215151515815260200191505060405180910390f35b34801561066357600080fd5b506106b06004803603604081101561067a57600080fd5b81019080803573ffffffffffffffffffffffffffffffffffffffff16906020019092919080359060200190929190505050611a6f565b6040518082815260200191505060405180910390f35b3480156106d257600080fd5b506106db611aca565b604051808215151515815260200191505060405180910390f35b34801561070157600080fd5b5061076e6004803603606081101561071857600080fd5b81019080803573ffffffffffffffffffffffffffffffffffffffff169060200190929190803573ffffffffffffffffffffffffffffffffffffffff16906020019092919080359060200190929190505050611add565b005b34801561077c57600080fd5b506107a96004803603602081101561079357600080fd5b8101908080359060200190929190505050611afd565b604051808381526020018273ffffffffffffffffffffffffffffffffffffffff1673ffffffffffffffffffffffffffffffffffffffff1681526020019250505060405180910390f35b3480156107fe57600080fd5b5061082b6004803603602081101561081557600080fd5b8101908080359060200190929190505050611b41565b6040518082815260200191505060405180910390f35b34801561084d57600080fd5b5061087a6004803603602081101561086457600080fd5b8101908080359060200190929190505050611b64565b604051808273ffffffffffffffffffffffffffffffffffffffff1673ffffffffffffffffffffffffffffffffffffffff16815260200191505060405180910390f35b3480156108c857600080fd5b50610996600480360360608110156108df57600080fd5b81019080803590602001909291908035906020019064010000000081111561090657600080fd5b82018360208201111561091857600080fd5b8035906020019184600183028401116401000000008311171561093a57600080fd5b91908080601f016020809104026020016040519081016040528093929190818152602001838380828437600081840152601f19601f82011690508083019250505050505050919291929080359060200190929190505050611b9b565b005b3480156109a457600080fd5b506109ad611d19565b6040518080602001828103825283818151815260200191508051906020019080838360005b838110156109ed5780820151818401526020810190506109d2565b50505050905090810190601f168015610a1a5780820380516001836020036101000a031916815260200191505b509250505060405180910390f35b348015610a3457600080fd5b50610a7760048036036020811015610a4b57600080fd5b81019080803573ffffffffffffffffffffffffffffffffffffffff169060200190929190505050611dbb565b6040518082815260200191505060405180910390f35b348015610a9957600080fd5b50610aa2611e90565b604051808273ffffffffffffffffffffffffffffffffffffffff1673ffffffffffffffffffffffffffffffffffffffff16815260200191505060405180910390f35b348015610af057600080fd5b50610af9611eb6565b6040518080602001828103825283818151815260200191508051906020019080838360005b83811015610b39578082015181840152602081019050610b1e565b50505050905090810190601f168015610b665780820380516001836020036101000a031916815260200191505b509250505060405180910390f35b610ba060048036036020811015610b8a57600080fd5b8101908080359060200190929190505050611f58565b604051808215151515815260200191505060405180910390f35b610be660048036036020811015610bd057600080fd5b81019080803590602001909291905050506123df565b604051808215151515815260200191505060405180910390f35b348015610c0c57600080fd5b50610c5b60048036036040811015610c2357600080fd5b81019080803573ffffffffffffffffffffffffffffffffffffffff169060200190929190803515159060200190929190505050612be8565b005b348015610c6957600080fd5b50610c72612da0565b6040518082815260200191505060405180910390f35b348015610c9457600080fd5b50610d9860048036036080811015610cab57600080fd5b81019080803573ffffffffffffffffffffffffffffffffffffffff169060200190929190803573ffffffffffffffffffffffffffffffffffffffff1690602001909291908035906020019092919080359060200190640100000000811115610d1257600080fd5b820183602082011115610d2457600080fd5b80359060200191846001830284011164010000000083111715610d4657600080fd5b91908080601f016020809104026020016040519081016040528093929190818152602001838380828437600081840152601f19601f820116905080830192505050505050509192919290505050612da6565b005b348015610da657600080fd5b50610dd360048036036020811015610dbd57600080fd5b8101908080359060200190929190505050612e1e565b6040518080602001828103825283818151815260200191508051906020019080838360005b83811015610e13578082015181840152602081019050610df8565b50505050905090810190601f168015610e405780820380516001836020036101000a031916815260200191505b509250505060405180910390f35b348015610e5a57600080fd5b50610e8760048036036020811015610e7157600080fd5b81019080803590602001909291905050506130ef565b6040518080602001838152602001828103825284818151815260200191508051906020019080838360005b83811015610ecd578082015181840152602081019050610eb2565b50505050905090810190601f168015610efa5780820380516001836020036101000a031916815260200191505b50935050505060405180910390f35b348015610f1557600080fd5b50610f7860048036036040811015610f2c57600080fd5b81019080803573ffffffffffffffffffffffffffffffffffffffff169060200190929190803573ffffffffffffffffffffffffffffffffffffffff16906020019092919050505061337a565b604051808215151515815260200191505060405180910390f35b6000806000837bffffffffffffffffffffffffffffffffffffffffffffffffffffffff19167bffffffffffffffffffffffffffffffffffffffffffffffffffffffff1916815260200190815260200160002060009054906101000a900460ff169050919050565b606060068054600181600116156101000203166002900480601f0160208091040260200160405190810160405280929190818152602001828054600181600116156101000203166002900480156110915780601f1061106657610100808354040283529160200191611091565b820191906000526020600020905b81548152906001019060200180831161107457829003601f168201915b5050505050905090565b60006110a68261340e565b6110fb576040517f08c379a000000000000000000000000000000000000000000000000000000000815260040180806020018281038252602c815260200180614a93602c913960400191505060405180910390fd5b6004600083815260200190815260200160002060009054906101000a900473ffffffffffffffffffffffffffffffffffffffff169050919050565b600061114182611b64565b90508073ffffffffffffffffffffffffffffffffffffffff168373ffffffffffffffffffffffffffffffffffffffff1614156111c8576040517f08c379a0000000000000000000000000000000000000000000000000000000008152600401808060200182810382526021815260200180614b436021913960400191505060405180910390fd5b8073ffffffffffffffffffffffffffffffffffffffff166111e761342b565b73ffffffffffffffffffffffffffffffffffffffff16148061121657506112158161121061342b565b61337a565b5b61126b576040517f08c379a00000000000000000000000000000000000000000000000000000000081526004018080602001828103825260388152602001806149e66038913960400191505060405180910390fd5b6112758383613433565b505050565b600d5481565b600061128c60026134ec565b905090565b6000600d54905090565b600080606060008085600a600082815260200190815260200160002060030160009054906101000a900460ff1661133a576040517f08c379a00000000000000000000000000000000000000000000000000000000081526004018080602001828103825260098152602001807f4e6f7420466f756e64000000000000000000000000000000000000000000000081525060200191505060405180910390fd5b61134261477f565b600a60008981526020019081526020016000206040518060a00160405290816000820160009054906101000a900473ffffffffffffffffffffffffffffffffffffffff1673ffffffffffffffffffffffffffffffffffffffff1673ffffffffffffffffffffffffffffffffffffffff16815260200160018201548152602001600282018054600181600116156101000203166002900480601f0160208091040260200160405190810160405280929190818152602001828054600181600116156101000203166002900480156114595780601f1061142e57610100808354040283529160200191611459565b820191906000526020600020905b81548152906001019060200180831161143c57829003601f168201915b505050505081526020016003820160009054906101000a900460ff1615151515815260200160048201548152505090506114916147c6565b601060008a8152602001908152602001600020604051806040016040529081600082015481526020016001820160009054906101000a900473ffffffffffffffffffffffffffffffffffffffff1673ffffffffffffffffffffffffffffffffffffffff1673ffffffffffffffffffffffffffffffffffffffff168152505090508882602001518360400151836000015185600001518292508090509750975097509750975050505091939590929450565b61155361154d61342b565b82613501565b6115a8576040517f08c379a0000000000000000000000000000000000000000000000000000000008152600401808060200182810382526031815260200180614b646031913960400191505060405180910390fd5b6115b38383836135f5565b505050565b600f602052816000526040600020602052806000526040600020600091509150505481565b6000816115e861477f565b600a60008381526020019081526020016000206040518060a00160405290816000820160009054906101000a900473ffffffffffffffffffffffffffffffffffffffff1673ffffffffffffffffffffffffffffffffffffffff1673ffffffffffffffffffffffffffffffffffffffff16815260200160018201548152602001600282018054600181600116156101000203166002900480601f0160208091040260200160405190810160405280929190818152602001828054600181600116156101000203166002900480156116ff5780601f106116d4576101008083540402835291602001916116ff565b820191906000526020600020905b8154815290600101906020018083116116e257829003601f168201915b505050505081526020016003820160009054906101000a900460ff161515151581526020016004820154815250509050806000015173ffffffffffffffffffffffffffffffffffffffff163373ffffffffffffffffffffffffffffffffffffffff16141561176c57600080fd5b60011515600e60009054906101000a900460ff1615151461178c57600080fd5b60011515601160009054906101000a900460ff161515146117ac57600080fd5b60008060006010600088815260200190815260200160002090508060010160009054906101000a900473ffffffffffffffffffffffffffffffffffffffff1673ffffffffffffffffffffffffffffffffffffffff163373ffffffffffffffffffffffffffffffffffffffff1614156118c1578060010160009054906101000a900473ffffffffffffffffffffffffffffffffffffffff169250600f600088815260200190815260200160002060008260010160009054906101000a900473ffffffffffffffffffffffffffffffffffffffff1673ffffffffffffffffffffffffffffffffffffffff1673ffffffffffffffffffffffffffffffffffffffff168152602001908152602001600020549150611918565b339250600f600088815260200190815260200160002060008473ffffffffffffffffffffffffffffffffffffffff1673ffffffffffffffffffffffffffffffffffffffff1681526020019081526020016000205491505b600082141561192657600080fd5b81600f600089815260200190815260200160002060008573ffffffffffffffffffffffffffffffffffffffff1673ffffffffffffffffffffffffffffffffffffffff168152602001908152602001600020600082825403925050819055503373ffffffffffffffffffffffffffffffffffffffff166108fc839081150290604051600060405180830381858888f193505050506119c257600080fd5b7f0ec497a8ae5b1ba29c60470ef651def995fac3deebbdcc56c47a4e5f51a4c2bd338484604051808473ffffffffffffffffffffffffffffffffffffffff1673ffffffffffffffffffffffffffffffffffffffff1681526020018373ffffffffffffffffffffffffffffffffffffffff1673ffffffffffffffffffffffffffffffffffffffff168152602001828152602001935050505060405180910390a1600195505050505050919050565b6000611ac282600160008673ffffffffffffffffffffffffffffffffffffffff1673ffffffffffffffffffffffffffffffffffffffff16815260200190815260200160002061383890919063ffffffff16565b905092915050565b600e60009054906101000a900460ff1681565b611af883838360405180602001604052806000815250612da6565b505050565b60106020528060005260406000206000915090508060000154908060010160009054906101000a900473ffffffffffffffffffffffffffffffffffffffff16905082565b600080611b5883600261385290919063ffffffff16565b50905080915050919050565b6000611b9482604051806060016040528060298152602001614a486029913960026138819092919063ffffffff16565b9050919050565b6000831015611c12576040517f08c379a000000000000000000000000000000000000000000000000000000000815260040180806020018281038252601c8152602001807f50726963652063616e6e6f74206265206c65737373207468616e20300000000081525060200191505060405180910390fd5b600d600081548092919060010191905055506040518060a001604052803373ffffffffffffffffffffffffffffffffffffffff16815260200184815260200183815260200160011515815260200182815250600a6000600d54815260200190815260200160002060008201518160000160006101000a81548173ffffffffffffffffffffffffffffffffffffffff021916908373ffffffffffffffffffffffffffffffffffffffff160217905550602082015181600101556040820151816002019080519060200190611ce69291906147f6565b5060608201518160030160006101000a81548160ff02191690831515021790555060808201518160040155905050505050565b606060098054600181600116156101000203166002900480601f016020809104026020016040519081016040528092919081815260200182805460018160011615610100020316600290048015611db15780601f10611d8657610100808354040283529160200191611db1565b820191906000526020600020905b815481529060010190602001808311611d9457829003601f168201915b5050505050905090565b60008073ffffffffffffffffffffffffffffffffffffffff168273ffffffffffffffffffffffffffffffffffffffff161415611e42576040517f08c379a000000000000000000000000000000000000000000000000000000000815260040180806020018281038252602a815260200180614a1e602a913960400191505060405180910390fd5b611e89600160008473ffffffffffffffffffffffffffffffffffffffff1673ffffffffffffffffffffffffffffffffffffffff1681526020019081526020016000206138a0565b9050919050565b600b60009054906101000a900473ffffffffffffffffffffffffffffffffffffffff1681565b606060078054600181600116156101000203166002900480601f016020809104026020016040519081016040528092919081815260200182805460018160011615610100020316600290048015611f4e5780601f10611f2357610100808354040283529160200191611f4e565b820191906000526020600020905b815481529060010190602001808311611f3157829003601f168201915b5050505050905090565b600081611f6361477f565b600a60008381526020019081526020016000206040518060a00160405290816000820160009054906101000a900473ffffffffffffffffffffffffffffffffffffffff1673ffffffffffffffffffffffffffffffffffffffff1673ffffffffffffffffffffffffffffffffffffffff16815260200160018201548152602001600282018054600181600116156101000203166002900480601f01602080910402602001604051908101604052809291908181526020018280546001816001161561010002031660029004801561207a5780601f1061204f5761010080835404028352916020019161207a565b820191906000526020600020905b81548152906001019060200180831161205d57829003601f168201915b505050505081526020016003820160009054906101000a900460ff161515151581526020016004820154815250509050806000015173ffffffffffffffffffffffffffffffffffffffff163373ffffffffffffffffffffffffffffffffffffffff16146120e657600080fd5b600e60009054906101000a900460ff161561210057600080fd5b6001600e60006101000a81548160ff02191690831515021790555060011515601160009054906101000a900460ff16151514156123a85761213f61477f565b600a60008681526020019081526020016000206040518060a00160405290816000820160009054906101000a900473ffffffffffffffffffffffffffffffffffffffff1673ffffffffffffffffffffffffffffffffffffffff1673ffffffffffffffffffffffffffffffffffffffff16815260200160018201548152602001600282018054600181600116156101000203166002900480601f0160208091040260200160405190810160405280929190818152602001828054600181600116156101000203166002900480156122565780601f1061222b57610100808354040283529160200191612256565b820191906000526020600020905b81548152906001019060200180831161223957829003601f168201915b505050505081526020016003820160009054906101000a900460ff1615151515815260200160048201548152505090506000601060008781526020019081526020016000209050600c600081548092919060010191905055506122bb33600c546138b5565b6122cb600c5483604001516138d3565b6000816000015414156122dd57600080fd5b8060000154600f600088815260200190815260200160002060008360010160009054906101000a900473ffffffffffffffffffffffffffffffffffffffff1673ffffffffffffffffffffffffffffffffffffffff1673ffffffffffffffffffffffffffffffffffffffff168152602001908152602001600020600082825403925050819055503373ffffffffffffffffffffffffffffffffffffffff166108fc82600001549081150290604051600060405180830381858888f193505050506123a557600080fd5b50505b7f462b6ca7f632601af1295aeb320851f50e8e630a309173f23535845ea4bfb3b960405160405180910390a1600192505050919050565b6000600e60009054906101000a900460ff16156123fb57600080fd5b8161240461477f565b600a60008381526020019081526020016000206040518060a00160405290816000820160009054906101000a900473ffffffffffffffffffffffffffffffffffffffff1673ffffffffffffffffffffffffffffffffffffffff1673ffffffffffffffffffffffffffffffffffffffff16815260200160018201548152602001600282018054600181600116156101000203166002900480601f01602080910402602001604051908101604052809291908181526020018280546001816001161561010002031660029004801561251b5780601f106124f05761010080835404028352916020019161251b565b820191906000526020600020905b8154815290600101906020018083116124fe57829003601f168201915b505050505081526020016003820160009054906101000a900460ff161515151581526020016004820154815250509050806000015173ffffffffffffffffffffffffffffffffffffffff163373ffffffffffffffffffffffffffffffffffffffff16141561258857600080fd5b8361259161477f565b600a60008381526020019081526020016000206040518060a00160405290816000820160009054906101000a900473ffffffffffffffffffffffffffffffffffffffff1673ffffffffffffffffffffffffffffffffffffffff1673ffffffffffffffffffffffffffffffffffffffff16815260200160018201548152602001600282018054600181600116156101000203166002900480601f0160208091040260200160405190810160405280929190818152602001828054600181600116156101000203166002900480156126a85780601f1061267d576101008083540402835291602001916126a8565b820191906000526020600020905b81548152906001019060200180831161268b57829003601f168201915b505050505081526020016003820160009054906101000a900460ff16151515158152602001600482015481525050905080602001513410156126e957600080fd5b60003414156126f757600080fd5b60006010600088815260200190815260200160002090506001601160006101000a81548160ff02191690831515021790555061273161477f565b600a60008981526020019081526020016000206040518060a00160405290816000820160009054906101000a900473ffffffffffffffffffffffffffffffffffffffff1673ffffffffffffffffffffffffffffffffffffffff1673ffffffffffffffffffffffffffffffffffffffff16815260200160018201548152602001600282018054600181600116156101000203166002900480601f0160208091040260200160405190810160405280929190818152602001828054600181600116156101000203166002900480156128485780601f1061281d57610100808354040283529160200191612848565b820191906000526020600020905b81548152906001019060200180831161282b57829003601f168201915b505050505081526020016003820160009054906101000a900460ff161515151581526020016004820154815250509050600034600f60008b815260200190815260200160002060003373ffffffffffffffffffffffffffffffffffffffff1673ffffffffffffffffffffffffffffffffffffffff16815260200190815260200160002054019050826000015481116128df57600080fd5b6000600f60008b815260200190815260200160002060008560010160009054906101000a900473ffffffffffffffffffffffffffffffffffffffff1673ffffffffffffffffffffffffffffffffffffffff1673ffffffffffffffffffffffffffffffffffffffff16815260200190815260200160002054905081600f60008c815260200190815260200160002060003373ffffffffffffffffffffffffffffffffffffffff1673ffffffffffffffffffffffffffffffffffffffff168152602001908152602001600020819055508082116129e557808360800151830111156129d0578084600001819055506129e0565b8260800151820184600001819055505b612b00565b8360010160009054906101000a900473ffffffffffffffffffffffffffffffffffffffff1673ffffffffffffffffffffffffffffffffffffffff163373ffffffffffffffffffffffffffffffffffffffff1614612afc57338460010160006101000a81548173ffffffffffffffffffffffffffffffffffffffff021916908373ffffffffffffffffffffffffffffffffffffffff16021790555080836080015183011115612aeb5760001515601160019054906101000a900460ff1615151415612ab757808460000181905550612ae6565b826080015183602001510184600001819055506001601160016101000a81548160ff0219169083151502179055505b612afb565b8260800151820184600001819055505b5b8190505b7ff152f4ff5e488c55370a2d53925a55055228ebd8ec95bd0251bbb299e48786b033838660010160009054906101000a900473ffffffffffffffffffffffffffffffffffffffff16848860000154604051808673ffffffffffffffffffffffffffffffffffffffff1673ffffffffffffffffffffffffffffffffffffffff1681526020018581526020018473ffffffffffffffffffffffffffffffffffffffff1673ffffffffffffffffffffffffffffffffffffffff1681526020018381526020018281526020019550505050505060405180910390a1600198505050505050505050919050565b612bf061342b565b73ffffffffffffffffffffffffffffffffffffffff168273ffffffffffffffffffffffffffffffffffffffff161415612c91576040517f08c379a00000000000000000000000000000000000000000000000000000000081526004018080602001828103825260198152602001807f4552433732313a20617070726f766520746f2063616c6c65720000000000000081525060200191505060405180910390fd5b8060056000612c9e61342b565b73ffffffffffffffffffffffffffffffffffffffff1673ffffffffffffffffffffffffffffffffffffffff16815260200190815260200160002060008473ffffffffffffffffffffffffffffffffffffffff1673ffffffffffffffffffffffffffffffffffffffff16815260200190815260200160002060006101000a81548160ff0219169083151502179055508173ffffffffffffffffffffffffffffffffffffffff16612d4b61342b565b73ffffffffffffffffffffffffffffffffffffffff167f17307eab39ab6107e8899845ad3d59bd9653f200f220920489ca2b5937696c3183604051808215151515815260200191505060405180910390a35050565b600c5481565b612db7612db161342b565b83613501565b612e0c576040517f08c379a0000000000000000000000000000000000000000000000000000000008152600401808060200182810382526031815260200180614b646031913960400191505060405180910390fd5b612e188484848461395d565b50505050565b6060612e298261340e565b612e7e576040517f08c379a000000000000000000000000000000000000000000000000000000000815260040180806020018281038252602f815260200180614b14602f913960400191505060405180910390fd5b6060600860008481526020019081526020016000208054600181600116156101000203166002900480601f016020809104026020016040519081016040528092919081815260200182805460018160011615610100020316600290048015612f275780601f10612efc57610100808354040283529160200191612f27565b820191906000526020600020905b815481529060010190602001808311612f0a57829003601f168201915b505050505090506060612f38611d19565b9050600081511415612f4e5781925050506130ea565b60008251111561301f5780826040516020018083805190602001908083835b60208310612f905780518252602082019150602081019050602083039250612f6d565b6001836020036101000a03801982511681845116808217855250505050505090500182805190602001908083835b60208310612fe15780518252602082019150602081019050602083039250612fbe565b6001836020036101000a03801982511681845116808217855250505050505090500192505050604051602081830303815290604052925050506130ea565b80613029856139cf565b6040516020018083805190602001908083835b6020831061305f578051825260208201915060208101905060208303925061303c565b6001836020036101000a03801982511681845116808217855250505050505090500182805190602001908083835b602083106130b0578051825260208201915060208101905060208303925061308d565b6001836020036101000a03801982511681845116808217855250505050505090500192505050604051602081830303815290604052925050505b919050565b6060600082600a600082815260200190815260200160002060030160009054906101000a900460ff1661318a576040517f08c379a00000000000000000000000000000000000000000000000000000000081526004018080602001828103825260098152602001807f4e6f7420466f756e64000000000000000000000000000000000000000000000081525060200191505060405180910390fd5b61319261477f565b600a60008681526020019081526020016000206040518060a00160405290816000820160009054906101000a900473ffffffffffffffffffffffffffffffffffffffff1673ffffffffffffffffffffffffffffffffffffffff1673ffffffffffffffffffffffffffffffffffffffff16815260200160018201548152602001600282018054600181600116156101000203166002900480601f0160208091040260200160405190810160405280929190818152602001828054600181600116156101000203166002900480156132a95780601f1061327e576101008083540402835291602001916132a9565b820191906000526020600020905b81548152906001019060200180831161328c57829003601f168201915b505050505081526020016003820160009054906101000a900460ff1615151515815260200160048201548152505090506132e16147c6565b60106000878152602001908152602001600020604051806040016040529081600082015481526020016001820160009054906101000a900473ffffffffffffffffffffffffffffffffffffffff1673ffffffffffffffffffffffffffffffffffffffff1673ffffffffffffffffffffffffffffffffffffffff168152505090508160400151816000015181915094509450505050915091565b6000600560008473ffffffffffffffffffffffffffffffffffffffff1673ffffffffffffffffffffffffffffffffffffffff16815260200190815260200160002060008373ffffffffffffffffffffffffffffffffffffffff1673ffffffffffffffffffffffffffffffffffffffff16815260200190815260200160002060009054906101000a900460ff16905092915050565b6000613424826002613aff90919063ffffffff16565b9050919050565b600033905090565b816004600083815260200190815260200160002060006101000a81548173ffffffffffffffffffffffffffffffffffffffff021916908373ffffffffffffffffffffffffffffffffffffffff160217905550808273ffffffffffffffffffffffffffffffffffffffff166134a683611b64565b73ffffffffffffffffffffffffffffffffffffffff167f8c5be1e5ebec7d5bd14f71427d1e84f3dd0314c0f7b2291e5b200ac8c7c3b92560405160405180910390a45050565b60006134fa82600001613b19565b9050919050565b600061350c8261340e565b613561576040517f08c379a000000000000000000000000000000000000000000000000000000000815260040180806020018281038252602c8152602001806149ba602c913960400191505060405180910390fd5b600061356c83611b64565b90508073ffffffffffffffffffffffffffffffffffffffff168473ffffffffffffffffffffffffffffffffffffffff1614806135db57508373ffffffffffffffffffffffffffffffffffffffff166135c38461109b565b73ffffffffffffffffffffffffffffffffffffffff16145b806135ec57506135eb818561337a565b5b91505092915050565b8273ffffffffffffffffffffffffffffffffffffffff1661361582611b64565b73ffffffffffffffffffffffffffffffffffffffff1614613681576040517f08c379a0000000000000000000000000000000000000000000000000000000008152600401808060200182810382526029815260200180614aeb6029913960400191505060405180910390fd5b600073ffffffffffffffffffffffffffffffffffffffff168273ffffffffffffffffffffffffffffffffffffffff161415613707576040517f08c379a00000000000000000000000000000000000000000000000000000000081526004018080602001828103825260248152602001806149706024913960400191505060405180910390fd5b613712838383613b2a565b61371d600082613433565b61376e81600160008673ffffffffffffffffffffffffffffffffffffffff1673ffffffffffffffffffffffffffffffffffffffff168152602001908152602001600020613b2f90919063ffffffff16565b506137c081600160008573ffffffffffffffffffffffffffffffffffffffff1673ffffffffffffffffffffffffffffffffffffffff168152602001908152602001600020613b4990919063ffffffff16565b506137d781836002613b639092919063ffffffff16565b50808273ffffffffffffffffffffffffffffffffffffffff168473ffffffffffffffffffffffffffffffffffffffff167fddf252ad1be2c89b69c2b068fc378daa952ba7f163c4a11628f55a4df523b3ef60405160405180910390a4505050565b60006138478360000183613b98565b60001c905092915050565b6000806000806138658660000186613c1b565b915091508160001c8160001c8090509350935050509250929050565b6000613894846000018460001b84613cb4565b60001c90509392505050565b60006138ae82600001613daa565b9050919050565b6138cf828260405180602001604052806000815250613dbb565b5050565b6138dc8261340e565b613931576040517f08c379a000000000000000000000000000000000000000000000000000000000815260040180806020018281038252602c815260200180614abf602c913960400191505060405180910390fd5b80600860008481526020019081526020016000209080519060200190613958929190614876565b505050565b6139688484846135f5565b61397484848484613e2c565b6139c9576040517f08c379a000000000000000000000000000000000000000000000000000000000815260040180806020018281038252603281526020018061493e6032913960400191505060405180910390fd5b50505050565b60606000821415613a17576040518060400160405280600181526020017f30000000000000000000000000000000000000000000000000000000000000008152509050613afa565b600082905060005b60008214613a41578080600101915050600a8281613a3957fe5b049150613a1f565b6060816040519080825280601f01601f191660200182016040528015613a765781602001600182028036833780820191505090505b50905060006001830390508593505b60008414613af257600a8481613a9757fe5b0660300160f81b82828060019003935081518110613ab157fe5b60200101907effffffffffffffffffffffffffffffffffffffffffffffffffffffffffffff1916908160001a905350600a8481613aea57fe5b049350613a85565b819450505050505b919050565b6000613b11836000018360001b614071565b905092915050565b600081600001805490509050919050565b505050565b6000613b41836000018360001b614094565b905092915050565b6000613b5b836000018360001b61417c565b905092915050565b6000613b8f846000018460001b8473ffffffffffffffffffffffffffffffffffffffff1660001b6141ec565b90509392505050565b600081836000018054905011613bf9576040517f08c379a000000000000000000000000000000000000000000000000000000000815260040180806020018281038252602281526020018061491c6022913960400191505060405180910390fd5b826000018281548110613c0857fe5b9060005260206000200154905092915050565b60008082846000018054905011613c7d576040517f08c379a0000000000000000000000000000000000000000000000000000000008152600401808060200182810382526022815260200180614a716022913960400191505060405180910390fd5b6000846000018481548110613c8e57fe5b906000526020600020906002020190508060000154816001015492509250509250929050565b60008084600101600085815260200190815260200160002054905060008114158390613d7b576040517f08c379a00000000000000000000000000000000000000000000000000000000081526004018080602001828103825283818151815260200191508051906020019080838360005b83811015613d40578082015181840152602081019050613d25565b50505050905090810190601f168015613d6d5780820380516001836020036101000a031916815260200191505b509250505060405180910390fd5b50846000016001820381548110613d8e57fe5b9060005260206000209060020201600101549150509392505050565b600081600001805490509050919050565b613dc583836142c8565b613dd26000848484613e2c565b613e27576040517f08c379a000000000000000000000000000000000000000000000000000000000815260040180806020018281038252603281526020018061493e6032913960400191505060405180910390fd5b505050565b6000613e4d8473ffffffffffffffffffffffffffffffffffffffff166144bc565b613e5a5760019050614069565b6060613ff063150b7a0260e01b613e6f61342b565b888787604051602401808573ffffffffffffffffffffffffffffffffffffffff1673ffffffffffffffffffffffffffffffffffffffff1681526020018473ffffffffffffffffffffffffffffffffffffffff1673ffffffffffffffffffffffffffffffffffffffff16815260200183815260200180602001828103825283818151815260200191508051906020019080838360005b83811015613f1f578082015181840152602081019050613f04565b50505050905090810190601f168015613f4c5780820380516001836020036101000a031916815260200191505b5095505050505050604051602081830303815290604052907bffffffffffffffffffffffffffffffffffffffffffffffffffffffff19166020820180517bffffffffffffffffffffffffffffffffffffffffffffffffffffffff838183161783525050505060405180606001604052806032815260200161493e603291398773ffffffffffffffffffffffffffffffffffffffff166144cf9092919063ffffffff16565b9050600081806020019051602081101561400957600080fd5b8101908080519060200190929190505050905063150b7a0260e01b7bffffffffffffffffffffffffffffffffffffffffffffffffffffffff1916817bffffffffffffffffffffffffffffffffffffffffffffffffffffffff191614925050505b949350505050565b600080836001016000848152602001908152602001600020541415905092915050565b6000808360010160008481526020019081526020016000205490506000811461417057600060018203905060006001866000018054905003905060008660000182815481106140df57fe5b90600052602060002001549050808760000184815481106140fc57fe5b906000526020600020018190555060018301876001016000838152602001908152602001600020819055508660000180548061413457fe5b60019003818190600052602060002001600090559055866001016000878152602001908152602001600020600090556001945050505050614176565b60009150505b92915050565b600061418883836144e7565b6141e15782600001829080600181540180825580915050600190039060005260206000200160009091909190915055826000018054905083600101600084815260200190815260200160002081905550600190506141e6565b600090505b92915050565b6000808460010160008581526020019081526020016000205490506000811415614293578460000160405180604001604052808681526020018581525090806001815401808255809150506001900390600052602060002090600202016000909190919091506000820151816000015560208201518160010155505084600001805490508560010160008681526020019081526020016000208190555060019150506142c1565b828560000160018303815481106142a657fe5b90600052602060002090600202016001018190555060009150505b9392505050565b600073ffffffffffffffffffffffffffffffffffffffff168273ffffffffffffffffffffffffffffffffffffffff16141561436b576040517f08c379a00000000000000000000000000000000000000000000000000000000081526004018080602001828103825260208152602001807f4552433732313a206d696e7420746f20746865207a65726f206164647265737381525060200191505060405180910390fd5b6143748161340e565b156143e7576040517f08c379a000000000000000000000000000000000000000000000000000000000815260040180806020018281038252601c8152602001807f4552433732313a20746f6b656e20616c7265616479206d696e7465640000000081525060200191505060405180910390fd5b6143f360008383613b2a565b61444481600160008573ffffffffffffffffffffffffffffffffffffffff1673ffffffffffffffffffffffffffffffffffffffff168152602001908152602001600020613b4990919063ffffffff16565b5061445b81836002613b639092919063ffffffff16565b50808273ffffffffffffffffffffffffffffffffffffffff16600073ffffffffffffffffffffffffffffffffffffffff167fddf252ad1be2c89b69c2b068fc378daa952ba7f163c4a11628f55a4df523b3ef60405160405180910390a45050565b600080823b905060008111915050919050565b60606144de848460008561450a565b90509392505050565b600080836001016000848152602001908152602001600020541415905092915050565b606082471015614565576040517f08c379a00000000000000000000000000000000000000000000000000000000081526004018080602001828103825260268152602001806149946026913960400191505060405180910390fd5b61456e856144bc565b6145e0576040517f08c379a000000000000000000000000000000000000000000000000000000000815260040180806020018281038252601d8152602001807f416464726573733a2063616c6c20746f206e6f6e2d636f6e747261637400000081525060200191505060405180910390fd5b600060608673ffffffffffffffffffffffffffffffffffffffff1685876040518082805190602001908083835b60208310614630578051825260208201915060208101905060208303925061460d565b6001836020036101000a03801982511681845116808217855250505050505090500191505060006040518083038185875af1925050503d8060008114614692576040519150601f19603f3d011682016040523d82523d6000602084013e614697565b606091505b50915091506146a78282866146b3565b92505050949350505050565b606083156146c357829050614778565b6000835111156146d65782518084602001fd5b816040517f08c379a00000000000000000000000000000000000000000000000000000000081526004018080602001828103825283818151815260200191508051906020019080838360005b8381101561473d578082015181840152602081019050614722565b50505050905090810190601f16801561476a5780820380516001836020036101000a031916815260200191505b509250505060405180910390fd5b9392505050565b6040518060a00160405280600073ffffffffffffffffffffffffffffffffffffffff1681526020016000815260200160608152602001600015158152602001600081525090565b604051806040016040528060008152602001600073ffffffffffffffffffffffffffffffffffffffff1681525090565b828054600181600116156101000203166002900490600052602060002090601f016020900481019282601f1061483757805160ff1916838001178555614865565b82800160010185558215614865579182015b82811115614864578251825591602001919060010190614849565b5b50905061487291906148f6565b5090565b828054600181600116156101000203166002900490600052602060002090601f016020900481019282601f106148b757805160ff19168380011785556148e5565b828001600101855582156148e5579182015b828111156148e45782518255916020019190600101906148c9565b5b5090506148f291906148f6565b5090565b61491891905b808211156149145760008160009055506001016148fc565b5090565b9056fe456e756d657261626c655365743a20696e646578206f7574206f6620626f756e64734552433732313a207472616e7366657220746f206e6f6e20455243373231526563656976657220696d706c656d656e7465724552433732313a207472616e7366657220746f20746865207a65726f2061646472657373416464726573733a20696e73756666696369656e742062616c616e636520666f722063616c6c4552433732313a206f70657261746f7220717565727920666f72206e6f6e6578697374656e7420746f6b656e4552433732313a20617070726f76652063616c6c6572206973206e6f74206f776e6572206e6f7220617070726f76656420666f7220616c6c4552433732313a2062616c616e636520717565727920666f7220746865207a65726f20616464726573734552433732313a206f776e657220717565727920666f72206e6f6e6578697374656e7420746f6b656e456e756d657261626c654d61703a20696e646578206f7574206f6620626f756e64734552433732313a20617070726f76656420717565727920666f72206e6f6e6578697374656e7420746f6b656e4552433732314d657461646174613a2055524920736574206f66206e6f6e6578697374656e7420746f6b656e4552433732313a207472616e73666572206f6620746f6b656e2074686174206973206e6f74206f776e4552433732314d657461646174613a2055524920717565727920666f72206e6f6e6578697374656e7420746f6b656e4552433732313a20617070726f76616c20746f2063757272656e74206f776e65724552433732313a207472616e736665722063616c6c6572206973206e6f74206f776e6572206e6f7220617070726f766564a26469706673582212204a9c2e4e03dbd2a22fe19582c0fb972ea1a1e01143e22c5ce8e683cf480851f364736f6c63430006030033",
  "source": "pragma solidity ^0.6.3;\n\nimport \"@openzeppelin/contracts/token/ERC721/ERC721.sol\";\nimport \"@openzeppelin/contracts/math/SafeMath.sol\";\n\ncontract ArtAuction is ERC721 {\n    \n  using SafeMath for uint256;\n\n  mapping(uint256 => ArtItem) private _artItems;\n  address public owner;\n\n//   mapping (uint256=>string) public a;\n  uint256 public _tokenIds;\n  uint256 public _artItemIds;\n  bool public canceled;\n  mapping(uint256=>mapping(address => uint256)) public fundsByBidder; \n  mapping(uint256=>bidding) public bid;\n  bool auctionstarted = false; \n  bool firsttime = false;\n\n    event LogBid(address bidder, uint bid, address highestBidder, uint highestBid, uint highestBindingBid);   \n    event LogWithdrawal(address withdrawer, address withdrawalAccount, uint amount);\n    event LogCanceled();\n\n    struct ArtItem {\n        address payable seller;\n        uint256 minbid;\n        string tokenURI;\n        bool exists;  \n        uint bidIncrement;\n    }\n    \n    struct bidding{\n     uint highestBindingBid;\n     address payable highestBidder;\n    }\n\n\n  constructor() public ERC721(\"DART\", \"ART\")  //Initializing ERC721 \n  {   \n    owner=msg.sender;\n  }\n\n  \n  modifier artItemExist(uint256 id) {\n        require(_artItems[id].exists, \"Not Found\");\n        _;\n    }\n    \n    modifier onlyNotOwner(uint256 id) {      \n      ArtItem memory artItem = _artItems[id];   \n      if (msg.sender == artItem.seller) revert();\n    _;\n     }\n\n    modifier onlyNotCanceled{  \n    if (canceled) revert();\n    _;\n     }\n    modifier onlyOwner(uint256 id)\n     {\n        ArtItem memory artItem = _artItems[id];   \n        if (msg.sender != artItem.seller) revert();\n         _;\n     }\n     \n    modifier minbid(uint256 id)\n    {\n        ArtItem memory artItem = _artItems[id];\n        if(msg.value<artItem.minbid) revert();\n        _;\n    }\n\n  function addArtItem(uint256 price, string memory tokenURI, uint _bidincrement) public {\n        require(price >= 0, \"Price cannot be lesss than 0\");\n\n        _artItemIds++;\n        _artItems[_artItemIds] = ArtItem(msg.sender, price, tokenURI, true, _bidincrement );\n    }\n\n  function getArtItem(uint256 id)   //get art item info\n        public\n        view\n        artItemExist(id)\n        returns (\n            uint256,\n            uint256,\n            string memory,\n            uint256,\n            address\n        )\n    {\n        ArtItem memory artItem = _artItems[id];\n        bidding memory bid = bid[id]; \n        return (id, artItem.minbid, artItem.tokenURI, bid.highestBindingBid, artItem.seller);\n    }\n\n    function getArtItem2(uint256 id)   //get art item info\n        public\n        view\n        artItemExist(id)\n        returns (\n            string memory,\n            uint256\n        )\n    {\n        ArtItem memory artItem = _artItems[id];\n        bidding memory bid = bid[id]; \n        return (artItem.tokenURI, bid.highestBindingBid);\n    }\n    \n    function getArtItemIds() public \n    returns (uint256)\n    {\n        return _artItemIds;\n    }\n\n    // function getAlltid() \n    // returns (mapping)\n    // {\n    //     uint i = 0;\n    //     while(i < _artItemIds) {\n    //         a[i] = _artItems[i].tokenURI;\n    //         i++;\n    //     }\n    //     return (a);\n    // }\n\n    function cancelAuction(uint256 id) public payable\n    onlyOwner(id)\n    onlyNotCanceled()\n    returns (bool success)\n   {\n    canceled = true;\n    \n    if(auctionstarted==true)\n    {\n    ArtItem memory artItem = _artItems[id];   \n    bidding storage bid = bid[id]; \n    _tokenIds++; \n    _safeMint(msg.sender, _tokenIds);\n    _setTokenURI(_tokenIds, artItem.tokenURI);\n    \n    if (bid.highestBindingBid == 0) revert();\n    fundsByBidder[id][bid.highestBidder] -= bid.highestBindingBid;\n    if (!msg.sender.send(bid.highestBindingBid)) revert();\n        } \n    \n    LogCanceled();\n    return true;\n   }\n   \n   function placeBid(uint256 id) public\n    payable\n    onlyNotCanceled\n    onlyNotOwner(id)\n    minbid(id)\n    \n    returns (bool success)\n{\n    if (msg.value == 0) revert();\n    \n    bidding storage bid = bid[id]; \n    auctionstarted = true;\n    ArtItem memory artItem = _artItems[id];  \n\n    uint newBid = fundsByBidder[id][msg.sender] + msg.value;\n    \n\n    if (newBid <= bid.highestBindingBid) revert();\n\n    uint highestBid = fundsByBidder[id][bid.highestBidder];\n\n    fundsByBidder[id][msg.sender] = newBid;\n\n    if (newBid <= highestBid) {\n        if(newBid+artItem.bidIncrement> highestBid)\n        {\n            bid.highestBindingBid = highestBid;\n        }\n        else\n        {\n            bid.highestBindingBid = newBid+artItem.bidIncrement;\n        }\n    } else {\n\n        if (msg.sender != bid.highestBidder) {\n            bid.highestBidder = msg.sender;\n        if(newBid+artItem.bidIncrement> highestBid)\n        {   if(firsttime==false)\n            bid.highestBindingBid = highestBid;\n            else\n            {bid.highestBindingBid = artItem.minbid + artItem.bidIncrement;\n            firsttime=true;\n            }\n        }\n        else\n        {\n            bid.highestBindingBid = newBid+artItem.bidIncrement;\n        }\n        }\n        highestBid = newBid;\n    }\n\n    LogBid(msg.sender, newBid, bid.highestBidder, highestBid, bid.highestBindingBid);\n    return true;\n    }\n    \n    function withdraw(uint256 id) public payable onlyNotOwner(id)\n    returns (bool success) \n{   \n    require(canceled==true);\n    require(auctionstarted==true);\n    address payable withdrawalAccount;\n    uint withdrawalAmount;\n    bidding storage bid = bid[id]; \n    \n        if (msg.sender == bid.highestBidder) {\n            withdrawalAccount = bid.highestBidder;\n            withdrawalAmount = fundsByBidder[id][bid.highestBidder];\n        }\n        else {\n            withdrawalAccount = msg.sender;\n            withdrawalAmount = fundsByBidder[id][withdrawalAccount];\n        }\n\n    if (withdrawalAmount == 0) revert();\n\n    fundsByBidder[id][withdrawalAccount] -= withdrawalAmount;\n\n    if (!msg.sender.send(withdrawalAmount)) revert();\n\n    LogWithdrawal(msg.sender, withdrawalAccount, withdrawalAmount);\n\n    return true;\n}\n        \n}",
  "sourcePath": "E:\\warehouse\\NFT-Auction-Marketplace-master\\src\\contracts\\ArtAuction.sol",
  "compiler": {
    "name": "solc",
    "version": "0.6.3+commit.8dda9521.Emscripten.clang"
  },
  "schemaVersion": "3.4.3",
  "updatedAt": "2021-10-29T11:03:20.976Z",
  "devdoc": {
    "methods": {
      "approve(address,uint256)": {
        "details": "See {IERC721-approve}."
      },
      "balanceOf(address)": {
        "details": "See {IERC721-balanceOf}."
      },
      "baseURI()": {
        "details": "Returns the base URI set via {_setBaseURI}. This will be automatically added as a prefix in {tokenURI} to each token's URI, or to the token ID if no specific URI is set for that token ID."
      },
      "getApproved(uint256)": {
        "details": "See {IERC721-getApproved}."
      },
      "isApprovedForAll(address,address)": {
        "details": "See {IERC721-isApprovedForAll}."
      },
      "name()": {
        "details": "See {IERC721Metadata-name}."
      },
      "ownerOf(uint256)": {
        "details": "See {IERC721-ownerOf}."
      },
      "safeTransferFrom(address,address,uint256)": {
        "details": "See {IERC721-safeTransferFrom}."
      },
      "safeTransferFrom(address,address,uint256,bytes)": {
        "details": "See {IERC721-safeTransferFrom}."
      },
      "setApprovalForAll(address,bool)": {
        "details": "See {IERC721-setApprovalForAll}."
      },
      "supportsInterface(bytes4)": {
        "details": "See {IERC165-supportsInterface}.     * Time complexity O(1), guaranteed to always use less than 30 000 gas."
      },
      "symbol()": {
        "details": "See {IERC721Metadata-symbol}."
      },
      "tokenByIndex(uint256)": {
        "details": "See {IERC721Enumerable-tokenByIndex}."
      },
      "tokenOfOwnerByIndex(address,uint256)": {
        "details": "See {IERC721Enumerable-tokenOfOwnerByIndex}."
      },
      "tokenURI(uint256)": {
        "details": "See {IERC721Metadata-tokenURI}."
      },
      "totalSupply()": {
        "details": "See {IERC721Enumerable-totalSupply}."
      },
      "transferFrom(address,address,uint256)": {
        "details": "See {IERC721-transferFrom}."
      }
    }
  },
  "userdoc": {
    "methods": {}
  }
}